:02000000FD2BD6
:10057200F33083129F050330A200A20BBE2A83121E
:100582009F149F18C52AC62AC22A1E08A1008316D4
:100592001E088312A00008008312A301A401DF2A0F
:1005A200C730A200D42AA20BD32AD72AD82A0130D4
:1005B2008312A3070318A40A0030A4072108240207
:1005C200031DE52A20082302031CE82AE92AD12A6E
:1005D200080000308312AC000030AB000030AA00EB
:1005E2000030A900201CF62AF72A0E2B2408A9079E
:1005F200250803110318013E0319002BAA07260838
:1006020003110318013E0319072BAB072708031137
:100612000318013E03190E2BAC070130A80003108A
:10062200A40DA50DA60DA70DA80B102B01300310CC
:10063200A30CA20CA10CA00CFF3E031D182B230837
:10064200220421042004031D272B282BF32A2C0823
:10065200A3002B08A2002A08A1002908A000080074
:1006620000308312B9000030B8000030B70000300B
:10067200B60030082F042E042D040319412B422BFF
:100682008D2B0130BA00502B0130B5000310AD0D97
:10069200AE0DAF0DB00DB50B472B0130BA07B01F31
:1006A200532B542B452B0130B5000310B60DB70D5B
:1006B200B80DB90DB50B562B30083402031D6B2B48
:1006C2002F083302031D6B2B2E083202031D6B2BE6
:1006D2002D083102031C6E2B6F2B7E2B2D08B102CD
:1006E2002E08031C2E0FB2022F08031C2F0FB30279
:1006F2003008031C300FB402361401300310B00C62
:10070200AF0CAE0CAD0CFF3E031D7F2B0130BA02C5
:10071200031D8C2B8D2B542B3908B0003808AF00E9
:100722003708AE003608AD00080009308316850090
:1007320001309F00813083129F0007309900831699
:10074200990183128501B92283122108BC00200875
:10075200BB000030B0000030AF000330AE00FF300D
:10076200AD003B08A0003C08A100A201A30100309B
:10077200A7000030A6000330A500E730A400EA225B
:1007820083122308B4002208B3002108B200200813
:10079200B100312383122D08013EBD002E0803183B
:1007A200013E003EBE0085100515051685163E0861
:1007B200A1003D08A000CD22831285140511051663
:1007C20085163E08A1003D08A000CD2283128514A3
:1007D2000515051285163E08A1003D08A000CD2290
:1007E200831285140515051685123E08A1003D08E1
:0C07F200A000CD22A42B00288301962B30
:02400E009431EB
:00000001FF
